:0600000002002902016C60
:03000B000202EB03
:030013000201CD1A
:03001B0002037667
:030023000202CF07
:200082007508FE7509FC750AF8750BF0750CE0750DC0750E80750F007510017511007512C5
:1A00A20000751300751400751500751600751701751800E4F519F51AF51BF3
:0300C50002002610
:030026000200C80D
:2000C80012087C758288120812758243120847120AB11201617582001202A512022B759007
:2000E80000D2A17401B51C0280F97401B51803751800759000E511FF24F840E7EFF5F024BD
:200108000B83F582E5F0240C83F583E473252B31374049525B010101010101010112050866
:200128000200EB12065D0200EB1206EB0200EB7582001207850200EB75820112078502005E
:20014800EB75820012046D0200EB75820112046D0200EB1204410200EBD2A8D2AAD288D277
:200168008AD2AF22C021C0E0C0F0C082C083C007C006C005C004C003C002C001C000C0D0E8
:2001880075D0007510017517017518017407B511057511008006E511FF04F5117510008516
:2001A80010821202A512022BD0D0D000D001D002D003D004D005D006D007D083D082D0F00C
:2001C800D0E0D02132C021C0E0C0F0C082C083C007C006C005C004C003C002C001C000C0B2
:2001E800D075D000751002751C011202E88510821202A5758282120812AF1074302FF5824F
:2002080012084712022BD0D0D000D001D002D003D004D005D006D007D083D082D0F0D0E0E5
:20022800D021327582C0120812E5107034FEFFC3EE9409EF648094805062EE2482FBEF3481
:200248000FFC7D808B828C838DF0120E17F582C007C006120847D006D0070EBE00D10F8080
:20026800CE7401B510367E007F00C3EE940BEF648094805027EE248CFBEF340FFC7D808B3E
:1D028800828C838DF0120E17F582C007C006120847D006D0070EBE00D10F80CE22E6
:160F820054656D70206D6F646500456666656374206D6F646500EC
:0900BC00751D64751E00751F0A14
:2002A500AF82BF00028005BF021F800E758910758DFC758B18D2ABD28E22758920758DFD14
:2002C500759850C2ABD2ACD28E22B2A2309805859990C2983243890185198C758A00D2A983
:2002E500D28C22C28C22C021C0E0C0F0C082C083C007C006C005C004C003C002C001C00037
:20030500C0D075D000E51F7025740A2519F519E4351AF51AC374FF9519E4951A500BE4F5B3
:2003250019F51A900032120A94751F0A8005E51F14F51FE51B700D751B0175905585198C3D
:20034500C28D8010751B007590AAAF1974FFC39FF58CC28DD0D0D000D001D002D003D00453
:20036500D005D006D007D083D082D0F0D0E0D02132C021C0E0C0F0C082C083C007C006C0BB
:2003850005C004C003C002C001C000C0D075D000120B78120D6DAC82AD83AEF0FFC004C014
:2003A50005C006C00790000075F080743D120B9AAC82AD83AEF0FFE58124FCF581E4C0E04E
:2003C500C0E0C0E0743FC0E08C828D838EF0EF120D14AC82AD83AEF0FFE58124FCF5818C44
:2003E500828D838EF0EF120D7AAE82AF83C3EE9428EF6480948040081202DA751C01801151
:20040500C3EE9428EF6480948050061202E8751C00C28FD0D0D000D001D002D003D004D0C5
:2004250005D006D007D083D082D0F0D0E0D02132E517B401009200E433F517227590AAE5B1
:200445001D251DF582E51E33F583120A94759055E51D251DF582E51E33F583120A94E517F4
:2004650060057401B5180022AF827590FFEF70417D04FEC374089D74808EF063F08095F0B4
:2004850040698D048CF005F07401800225E0D5F0FBF452907464251DF582E4351EF583C01A
:2004A50006C005120A94D005D0060DBD00C50E80C2BF01377E037F00EF20E72F8E058DF006
:2004C50005F07401800225E0D5F0FBF452907464251DF582E4351EF583C007C006120A9413
:2004E500D006D0071EBEFF011F80CD851D82851E83120A94E51760057401B5180122C2B6CA
:20050500D2B6227E007F00C3EE9408EF6480948040030205B37408C39EFCE49FFD7A007BB0
:2005250000C3EA9CEB64808DF063F08095F050428A0189F005F07401800225E0D5F0FBF989
:200545004290851D82851E83C007C006C005C004C003C002C001120A94D001D002D003D028
:2005650004D005D006D007E9F452900ABA00B20B80AF8E057407C39DF5F005F07401800242
:2005850025E0D5F0FB4290E51760057401B5180122851D82851E83C007C006120A94D0069C
:2005A500D007C2B6D2B60EBE00010F02050C7E007F00C3EE9408EF64809480400122740860
:2005C500C39EFCE49FFD7A007B00C3EA9CEB64808DF063F08095F050428A0189F005F07458
:2005E50001800225E0D5F0FBF9F45290851D82851E83C007C006C005C004C003C002C00139
:20060500120A94D001D002D003D004D005D006D007E942900ABA00B20B80AF8E057407C31D
:200625009DF5F005F07401800225E0D5F0FBF45290E51760057401B5180122851D82851E1F
:2006450083C007C006120A94D006D007C2B6D2B60EBE00010F0205B77E007F00C3EE940844
:20066500EF6480948050378E058DF005F07401800225E0D5F0FB4290851D82851E83C00763
:20068500C006120A94D006D007E51760057401B5180122C2B6D2B60EBE00C10F80BE7E0014
:2006A5007F00C3EE9408EF6480948050388E058DF005F07401800225E0D5F0FBF4529085DE
:2006C5001D82851E83C007C006120A94D006D007E51760057401B5180122C2B6D2B60EBED4
:2006E50000C00F80BD227F047E04851D82851E83C007C006120A94D006D0078E058DF00579
:20070500F07401800225E0D5F0FB42908F058DF005F07401800225E0D5F0FBFD4290E517C9
:2007250060057401B51801221FC2B6D2B60EEE24F750B77E08851D82851E83C007C006123E
:200745000A94D006D0070F8E058DF005F07401800225E0D5F0FBF452908F058DF005F07429
:2007650001800225E0D5F0FBF45290E51760057401B5180122C2B6D2B61EBE040050B62288
:20078500AF82BF013A7590007D007E00C3ED9401EE64809481505D8D90E51760057401B5A8
:2007A500180122851D82851E83C006C005120A94D005D006C2B6D2B60DBD00D00E80CDEFE5
:2007C50070327590FFFE7F01EF20E7288E90E51760057401B5180122851D82851E83C007DD
:1507E500C006120A94D006D007C2B6D2B61EBEFF011F80D4226B
:2007FA00AE82AF83EE4F600F7DC77C01DCFEDDFA1EBEFF011F80ED22AF82C2A7C2A6C2A56C
:20081A008F80900001C0071207FAD2A79000051207FAD007C2A7EFC454F0F58090000112D4
:20083A0007FAD2A79000051207FAC2A722AF82C2A7D2A6C2A58F80900001C0071207FAD22C
:20085A00A79000051207FAD007C2A7EFC454F0F5809000011207FAD2A79000051207FAC2FC
:20087A00A72275823212081275822812081275820C12081275820612081275820112081279
:20089A00758280020812AE82AF83E4F522F523F524F525F526EF20E703020936758280C077
:2008BA0007C00612081275822D120847D006D007EE24FFFCEF34FFFDECF4F582EDF4F58317
:2008DA00120D6DAA82AB83ACF0FDC002C003C004C00590000075F0C87440120B9AAA82AB72
:2008FA0083ACF0FDE58124FCF581E4C0E0C0E0C0E0743FC0E08A828B838CF0ED120D14AA4F
:20091A0082AB83ACF0FDE58124FCF5818A828B838CF0ED120D7AAC82AD838072758280C0D5
:20093A0007C00612081275822B120847D006D0078E828F83120D6DAA82AB83AEF0FFC0020D
:20095A00C003C006C00790000075F0C87440120B9AAA82AB83AEF0FFE58124FCF581E4C06E
:20097A00E0C0E0C0E0743FC0E08A828B838EF0EF120D14AA82AB83AEF0FFE58124FCF5813D
:20099A008A828B838EF0EF120D7AAC82AD837527107528278C828D83C005C004120E96AE44
:2009BA0082D004D0058E227527107528278C828D83C005C004120E337527E8752803120E94
:2009DA0096AE82D004D0058E237527E87528038C828D83C005C004120E3375276475280022
:2009FA00120E96AE82D004D0058E247527647528008C828D83C005C004120E3375270A75EA
:200A1A002800120E96AE82D004D0058E2575270A7528008C828D83120E33AE828E267582C3
:200A3A0082120812AF2274302FF582120847758283120812AF2374302FF582120847758258
:200A5A0084120812AF2474302FF58212084775828512081275822E12084775828612081277
:1A0A7A00AF2574302FF582120847758287120812AF2674302FF582020847C9
:200A9400AE82AF83EE4F60147C6E7D001CBCFF011DEC4D70F71EBEFF011F80E822C2B77EB7
:200AB400467F008E048F051EBEFF011FEC4D70F3D2B77E007F0030B7120EBE00010FC3740E
:200AD400889E74139F50EF7582002275820122AF827D007E00C2B7EF540124FF92B77B066E
:200AF4007C008B018C021BBBFF011CE94A70F3D2B7EFC313FF0DBD00010EC3ED9408EE94D0
:200B14000040D2227E087F007D00C2B7D2B7A2B7E433FCEDC313FBEC0354804BFD7B047CD9
:200B3400008B018C021BBBFF011CE94A70F31EBEFF011FEE4F70D38D8222120AB1900001F5
:200B5400120A947582CC120AE3758244020AE3120AB1900001120A947582CC120AE375821E
:200B7400BE020AE3120B4E120B63120B18AF82C007120B18AE82D0078E05E4FEFCEF4EF5BD
:060B940082EC4DF5832206
:200B9A00120C3DBC0003020DCFEF60FA30D502B2D1E583B4FF03020DE5E582B4FF03020D32
:200BBA00E5258340072482400B020DCF2483145003020DE5F582EA8DF0A4A8F0EA8EF0A450
:200BDA0028F8E435F0F9EB8DF0A428E935F0F9E433CA8FF0A429F9EA35F0FAEBF88EF0A46A
:200BFA0029F9EA35F0FAE433FBEC8DF0A429F9EA35F0FAE43BFBE88FF0A42AFAEB35F0FB12
:200C1A00E433CCFD8EF0A42AFAEB35F0FBE43CFCED8FF0A42BFBEC35F0FC20E703120C6B97
:030C3A00020DAEFA
:200C3D00AA82AB83A2F73392D1F5826002D2F7ACF0E58124F9F8E6FD08E6FE0886F008E61A
:0E0C5D00A2F73392D5F5836002D2F7AFF022F2
:06005800E478FFF6D8FD7C
:200C6B007804EC7011E58224F8500AF582E4C9CACBFCD8EF22EC7820058220E713D5820188
:130C8B0022C3E933F9EA33FAEB33FBEC33FCD8EA15822296
:200036007900E94400601B7A00900F98780175A000E493F2A308B8000205A0D9F4DAF275C9
:02005600A0FF09
:200C9E00E527452860467A01E52725E0F527E528334012F528E5829527E583952840030A2B
:200CBE0080E6C3E52813F528E52713F527C3E5829527F5F0E58395284005F58385F082C30E
:0D0CDE00E52813F528E52713F527DAE122B4
:200CEB007A10E4FBFCE58225E0F582E58333F583EB33FBEC33FCEB9527F5F0EC95284006DF
:090D0B00FCABF0438201DADD22A9
:200D1400120C3D7900E583B58202800D5003120DFDE583C39582120ECEE5D0C465D020E16F
:200D340017EA2DFAEB3EFBEC3FFC50097401120ECEEC4480FC020DAEC3EA9DFAEB9EFBEC53
:190D54009FFC500FC3E499F9E49AFAE49BFBE49CFCB2D1120C6B020DAE1C
:20005E007800E84400600A790175A000E4F309D8FC7800E84400600C7900900001E4F0A3A0
:04007E00D8FCD9FAD7
:0D0D6D00AC83AB827A007900748E020E72A6
:200D7A00120F11700AE582458345F0700122E430D112F4700BE5F0F47006E58330E701226F
:140D9A0090800022700AE5F07006E58320E70122907FFF228C
:200DAE00B98003EA13B34010EA2401FAE43BFBE43CFC50047C800582BC000EBB000BBA0089
:200DCE0008E4F5F0F583F58222A2D1E582138CF092F78B838A8222E4F583F58275F080F449
:0F0DEE00A2D11322E4F583F58275F0C0747F2241
:1A0DFD00E582C583F582A2D133A2D592D11392D5ECCFFCEBCEFBEACDFA227E
:0D002900758128120F6CE58260030200262D
:1C0E170020F71430F6148883A88220F507E6A88375830022E280F7E49322E022EA
:200E3300C2D5E58330E70DD2D5E4C39582F582E49583F583E52830E70BE4C39527F527E49A
:160E53009528F528120C9E30D50BE4C39582F582E49583F5832218
:200E6900FCABF0AA83A982749EF582C2D1EC30E716D2D1E9F42401F9EAF43400FAEBF43488
:0D0E890000FBECF43400FC120C6B020DAE0B
:200E9600C2D5E58330E70DD2D5E4C39582F582E49583F583E52830E70DB2D5E4C39527F5B9
:180EB60027E49528F528120CEB30D50BE4C39582F582E49583F583225B
:200ECE006040F82582500274FFF582E824F8501ECCCBCAF9E4CC24F85014CBCAF9E4CB242C
:200EEE00F8500BCAF9E4CA24F8500379002224086010F8C3EC13FCEB13FBEA13FAE913F9DF
:030F0E00D8F122F5
:200F1100120F70C3749E958240397900120ECE30D126E9F42401F582EAF43400F583EBF45A
:200F31003400F5F0ECF43400700AE582458345F0700122E430E70F22EC20E71489828A83B7
:1B0F51008BF02230D10AE4F582F583F5F074802274FFF582F583F5F0747F22B3
:040F6C007582002268
:120F7000AA82AB83A2F73392D1F5826002D2F7ACF02286
:00000001FF
